:100000000C94AC000C94D4000C94D4000C943B09D8
:100010000C943B090C943B090C94D4000C94D40030
:100020000C94D4000C94D4000C94D4000C94D40000
:100030000C94D4000C94D4000C94D4000C94D400F0
:100040000C94BA010C94D4000C946E030C94A0038D
:100050000C94D4000C94D4000C94D4000C94D400D0
:100060000C94D4000C94D40000000008000201009D
:100070000003040700000000000000000102040863
:100080001020408001020408102001020408102002
:10009000040404040404040402020202020203032E
:1000A00003030303000000002300260029000000D2
:1000B0000000250028002B0000000000240027007D
:1000C0002A000D0041542B434D47443D000D0A00CA
:1000D00041542B434D47523D0041542B434D47461D
:1000E0003D310D0A0041542B434D474C3D225245B2
:1000F0004320554E52454144222C310D0A004154B3
:100100002B434D474C3D2252454320554E524541CD
:1001100044222C310D0A00220D0A0041542B434D7C
:1001200047533D220041542B434D47463D310D0A74
:100130000041542B4350494E3F0D0A0041540D0AD3
:100140000041542B4346554E3D310D0A0041540D9C
:100150000A00A701D003B60111241FBECFEFD8E0DB
:10016000DEBFCDBF12E0A0E0B1E0E6EBFBE102C0F4
:1001700005900D92AC37B107D9F724E0ACE7B2E0B7
:1001800001C01D92A736B207E1F710E0CBEAD0E03C
:1001900004C02197FE010E94C80DC93AD107C9F7D2
:1001A0000E9456040C94BB0C0C94000061E082E0A9
:1001B0000E94D50260E082E00E9411038CE792E089
:1001C0000E94DF0526E040E051EE60E070E082E84A
:1001D00093E00E943A058CE792E00E943C06811170
:1001E0000DC069E071E082E893E00E943D0468EE92
:1001F00073E080E090E00E943502EDCF68EB7BE099
:1002000080E090E00E94350266E171E082E893E0D0
:100210000C944304EF92FF920F931F93CF93DF93BD
:100220008CE792E00E94C206682F880F770B7093CC
:10023000D8026093D702161617060CF081C08FEA19
:10024000E82E82E0F82E07EC12E020EA30E049EDDB
:1002500052E08CE792E00E943C076091D7027091D7
:10026000D8028CE792E00E94280863E471E082E8FB
:1002700093E00E943D04B80182E893E00E944304A9
:1002800061E571E082E893E00E943D04B70182E8F5
:1002900093E00E9443046CE571E082E893E00E94E1
:1002A0003D0469ED72E082E893E00E94430460E05F
:1002B00071E089ED92E00E94BE0CEC01299660E9A4
:1002C00071E0CE010E94BE0C892B41F061E082E01A
:1002D0000E9411034FE651E0B80121C06CE971E0C2
:1002E000CE010E94BE0C892B39F060E082E00E94B2
:1002F00011034FE651E011C061E871E0CE010E94A8
:10030000BE0C892BB1F082E00E944103892B19F0C9
:1003100047E851E002C043E951E067EC72E08CE746
:1003200092E0DF91CF911F910F91FF90EF900C948D
:10033000680660EA71E0CE010E94BE0C892B19F7B5
:10034000DF91CF911F910F91FF90EF9008950F9340
:100350001F9300E815E220E030E048E067E08CE71A
:1003600092E00E949F051F910F9108958CE792E003
:100370000C94B5091F920F920FB60F9211242F9370
:100380003F938F939F93AF93BF9380917A03909104
:100390007B03A0917C03B0917D033091790323E02E
:1003A000230F2D3720F40196A11DB11D05C026E8AD
:1003B000230F0296A11DB11D2093790380937A0328
:1003C00090937B03A0937C03B0937D0380917E0385
:1003D00090917F03A0918003B09181030196A11DAC
:1003E000B11D80937E0390937F03A0938003B0930D
:1003F0008103BF91AF919F918F913F912F910F906A
:100400000FBE0F901F9018952FB7F89460917A0344
:1004100070917B0380917C0390917D032FBF0895A1
:100420003FB7F89480917E0390917F03A091800361
:10043000B091810326B5A89B05C02F3F19F0019606
:10044000A11DB11D3FBFBA2FA92F982F8827820F5A
:10045000911DA11DB11DBC01CD0142E0660F771FAA
:10046000881F991F4A95D1F708958F929F92AF9256
:10047000BF92CF92DF92EF92FF926B017C010E94BC
:1004800010024B015C01C114D104E104F10401F13B
:100490000E946A030E941002DC01CB0188199909AD
:1004A000AA09BB09883E9340A105B10560F321E08C
:1004B000C21AD108E108F10888EE880E83E0981E80
:1004C000A11CB11CC114D104E104F10419F7DBCF64
:1004D000FF90EF90DF90CF90BF90AF909F908F9064
:1004E0000895789484B5826084BD84B5816084BDAC
:1004F00085B5826085BD85B5816085BDEEE6F0E09D
:10050000808181608083E1E8F0E0108280818260F8
:100510008083808181608083E0E8F0E08081816079
:100520008083E1EBF0E0808184608083E0EBF0E0A9
:10053000808181608083EAE7F0E08081846080834D
:1005400080818260808380818160808380818068F7
:1005500080831092C1000895833081F028F48130A7
:1005600099F08230A1F008958730A9F08830B9F071
:100570008430D1F4809180008F7D03C08091800011
:100580008F7780938000089584B58F7702C084B5FB
:100590008F7D84BD08958091B0008F7703C08091D6
:1005A000B0008F7D8093B0000895CF93DF9390E0EB
:1005B000FC01E458FF4F2491FC01E057FF4F849168
:1005C000882361F190E0880F991FFC01E854FF4FE8
:1005D000C591D491FC01E255FF4FA591B4916111F1
:1005E00009C09FB7F8948881209582238883EC9175
:1005F0002E230BC0623061F49FB7F8943881822FAC
:10060000809583238883EC912E2B2C939FBF06C06B
:100610008FB7F894E8812E2B28838FBFDF91CF917D
:1006200008951F93CF93DF93282F30E0F901E85905
:10063000FF4F8491F901E458FF4FD491F901E0573D
:10064000FF4FC491CC23C9F0162F81110E94AC0238
:10065000EC2FF0E0EE0FFF1FE255FF4FA591B49194
:100660008FB7F894111105C09C91ED2FE095E92307
:1006700002C0EC91ED2BEC938FBFDF91CF911F91D6
:100680000895CF93DF93282F30E0F901E859FF4F09
:100690008491F901E458FF4FD491F901E057FF4FDD
:1006A000C491CC2391F081110E94AC02EC2FF0E0B8
:1006B000EE0FFF1FEC55FF4FA591B491EC91ED2388
:1006C00081E090E021F480E002C080E090E0DF91E2
:1006D000CF910895089580E090E008951F920F92C1
:1006E0000FB60F9211242F938F939F93EF93FF9345
:1006F000E0919203F09193038081E0919803F0914F
:10070000990382FD12C0908180919B038F5F8F734C
:1007100020919C03821751F0E0919B03F0E0EE578B
:10072000FC4F958F80939B0301C08081FF91EF91D7
:100730009F918F912F910F900FBE0F901F90189542
:100740001F920F920FB60F9211242F933F934F9346
:100750005F936F937F938F939F93AF93BF93EF9329
:10076000FF9382E893E00E94B004FF91EF91BF9164
:10077000AF919F918F917F916F915F914F913F9139
:100780002F910F900FBE0F901F90189582E893E065
:100790000E94650421E0892B09F420E0822F08954E
:1007A000E2E8F3E01382128288EE93E0A0E0B0E08A
:1007B00084839583A683B78386EB91E091838083BE
:1007C00085EC90E09587848784EC90E09787868716
:1007D00080EC90E0918B808B81EC90E0938B828B0E
:1007E00082EC90E0958B848B86EC90E0978B868BE7
:1007F000118E128E138E148E0895CF92DF92EF9287
:10080000FF920F931F93CF93DF936C017A018B01BB
:10081000C0E0D0E0CE15DF0589F0D8016D918D01E3
:10082000D601ED91FC910190F081E02DC601099572
:10083000892B11F47E0102C02196ECCFC701DF9114
:10084000CF911F910F91FF90EF90DF90CF9008957F
:100850006115710579F0FB0101900020E9F73197EE
:10086000AF01461B570BDC01ED91FC910280F38137
:10087000E02D099480E090E008950C94280467E44A
:1008800072E00C9428040F931F93CF93DF93EC0135
:100890000E9428048C01CE010E943F04800F911F0A
:1008A000DF91CF911F910F91089508950E947102D9
:1008B0000E9455040E94D600C2EAD4E00E940A01B8
:1008C0002097E1F30E94A204F9CFFC01918D228DC3
:1008D000892F90E0805C9F4F821B91098F7399272D
:1008E0000895FC01918D828D981731F0828DE80F6B
:1008F000F11D858D90E008958FEF9FEF0895FC0125
:10090000918D828D981761F0828DDF01A80FB11D46
:100910005D968C91928D9F5F9F73928F90E008956A
:100920008FEF9FEF0895FC01538D448D252F30E00C
:10093000842F90E0821B930B541710F0CF960895EC
:100940000197089586EC93E0892B49F080E090E0D0
:10095000892B29F00E94C60381110C940000089590
:10096000FC01848DDF01A80FB11DA35ABF4F2C914C
:10097000848D90E001968F739927848FA689B7891B
:100980002C93A089B1898C9180648C93938D848DF4
:10099000981306C00288F389E02D80818F7D8083C3
:1009A0000895CF93DF93EC01888D8823C9F0EA89FD
:1009B000FB89808185FD05C0A889B9898C9186FD58
:1009C0000FC00FB607FCF5CF808185FFF2CFA88955
:1009D000B9898C9185FFEDCFCE010E94B004E7CF9D
:1009E000DF91CF910895EF92FF920F931F93CF93D2
:1009F000DF93EC0181E0888F9B8D8C8D981305C06F
:100A0000E889F989808185FD24C0F62E0B8D10E0E0
:100A10000F5F1F4F0F731127E02E8C8DE8120CC053
:100A20000FB607FCFACFE889F989808185FFF5CFF9
:100A3000CE010E94B004F1CF8B8DFE01E80FF11DB5
:100A4000E35AFF4FF0820B8FEA89FB898081806235
:100A500007C0EE89FF896083E889F9898081806415
:100A6000808381E090E0DF91CF911F910F91FF9003
:100A7000EF900895CF92DF92EF92FF921F93CF9362
:100A8000DF93EC016A017B01122FE889F98982E08A
:100A900080834115514E61057105B1F060E079E048
:100AA0008DE390E0A70196010E94640DDA01C9016F
:100AB0000197A109B109B695A79597958795AC01BE
:100AC000411580E15807A8F0E889F989108260E8AB
:100AD00074E88EE190E0A70196010E94640DBA01CE
:100AE000A90141505109610971097695679557959A
:100AF0004795EC85FD855083EE85FF854083188EF4
:100B0000EC89FD891083EA89FB898081806180837B
:100B1000EA89FB89808188608083EA89FB898081FA
:100B200080688083EA89FB8980818F7D8083DF9163
:100B3000CF911F91FF90EF90DF90CF900895CF92CB
:100B4000DF92EF92FF920F931F93CF93DF93EC010D
:100B50006801790120E00E940E0AD0932004C0931E
:100B60001F04B701A601CE01DF91CF911F910F9114
:100B7000FF90EF90DF90CF900C94C70ACF93C62FD1
:100B800060E08C2F0E94110368EE73E080E090E03B
:100B90000E94350261E08C2F0E94110360ED77E026
:100BA00080E090E00E94350260E08C2F0E941103EB
:100BB00068EB7BE080E090E0CF910C9435020F93DE
:100BC0001F93CF93DF93EC0108EB1BE025E030E0AF
:100BD00040E050E065E472E08CE391E00E94820C1A
:100BE000811104C069E0CE010E94BE05DF91CF9162
:100BF0001F910F9108950F931F93CF93DF93CDB75C
:100C0000DEB7A0970FB6F894DEBF0FBECDBF60E28F
:100C100070E0CE0101960E94860B03E010E081E3B4
:100C200091E00E94BB0B28EB3BE045E050E060E226
:100C300070E0CE0101960E94E90A64EC71E0CE01F9
:100C400001960E94EE0C892B59F46CE271E080E071
:100C500090E00E9435020150110909F780E001C0BF
:100C600081E0A0960FB6F894DEBF0FBECDBFDF9136
:100C7000CF911F910F9108950F931F93CF93DF93FF
:100C8000EC0108EB1BE025E030E040E050E065E4DB
:100C900072E08DE491E00E94820C882399F025E0B7
:100CA00030E040E050E065E472E081E491E00E94D1
:100CB000820C882339F0CE01DF91CF911F910F91E3
:100CC0000C94FB0580E0DF91CF911F910F91089567
:100CD000EF92FF920F931F93CF93DF937B01EA0173
:100CE00008EB1BE025E030E040E050E065E472E016
:100CF00085E291E00E94820C8823E1F164EF71E0CB
:100D000080E090E00E9435020E94D80A8BE191E0D9
:100D10000E94BB0BC7010E949D0B25E030E040E024
:100D200050E06CED71E087E191E00E94820C882335
:100D300009F168EE73E080E090E00E943502CE0198
:100D40000E949D0B64EF71E080E090E00E9435020C
:100D50000E94CC0B28E833E140E157E260E070E00C
:100D600085E492E0DF91CF911F910F91FF90EF907A
:100D70000C94CF0B80E0DF91CF911F910F91FF90EA
:100D8000EF9008950F931F93CF93DF93CDB7DEB706
:100D9000E0970FB6F894DEBF0FBECDBF8EEF90E0A8
:100DA0000E94BB0B6FE170E0CE0101960E94860BA2
:100DB00028EB3BE045E050E06EE170E0CE010196AB
:100DC0000E94E90A6EED71E0CE0101960E94EE0CE0
:100DD000892B41F062E370E080E090E00E943502F0
:100DE00080E03FC028EB3BE045E050E060E070E091
:100DF00085E492E00E94CF0B85EE90E00E94BB0B51
:100E000060E370E0CE0101960E94860B28EB3BE088
:100E100045E050E06FE270E0CE0101960E94E90AE1
:100E200061EE71E0CE0101960E94EE0C892BC1F0BB
:100E30006AE370E0CE0101960E94E30C8C01892BDD
:100E400079F028EB3BE045E050E060E070E085E4BD
:100E500092E00E94CF0BC80101960E949D0C01C038
:100E60008FEFE0960FB6F894DEBF0FBECDBFDF91D7
:100E7000CF911F910F9108952F923F924F925F92C1
:100E80006F927F928F929F92AF92BF92CF92DF929A
:100E9000EF92FF920F931F93CF93DF9300D000D078
:100EA00000D0CDB7DEB71B012A01590138012DB79B
:100EB0003EB73E832D83450130E5830E911C8DB7EF
:100EC0009EB7881999090FB6F8949EBF0FBE8DBFC3
:100ED000ADB7BEB711966D0108EB1BE025E030E021
:100EE00040E050E065E472E089ED90E00E94820C01
:100EF00068EE73E080E090E00E94350280ED90E0C3
:100F00000E94BB0B4AE050E0BE016F5F7F4FC10102
:100F10000E94080DCE0101960E949D0B8DEC90E081
:100F20000E94BB0BB401C6010E94860B28EB3BE07C
:100F300045E050E0B401C6010E94E90A68EE71E0A4
:100F4000C6010E94EE0C4C01009709F45EC06CE2F1
:100F500070E00E94E30C02966C0162E270E00E9475
:100F6000E30C009799F0A601F3016A019F0126198D
:100F700037094817590730F44F5F5F4FD6012C915E
:100F80002193F3CFF301E20FF31F10826CE270E0C4
:100F9000C6010E94E30C6CE270E001960E94E30C33
:100FA00002966C0162E270E00E94E30C009779F017
:100FB000F601D7019D012E193F09E817F90718F42A
:100FC00021912D93F7CFF701E20FF31F108267E411
:100FD00072E0C4010E94EE0C0097C9F0FC01329649
:100FE000D20120E030E081E0A81AB10881918D3073
:100FF00029F4F201E20FF31F108209C02A153B0504
:10100000C4F72F5F3F4F8D93F1CF80E001C081E0A7
:10101000AD81BE810FB6F894BEBF0FBEADBF2696A0
:101020000FB6F894DEBF0FBECDBFDF91CF911F91F9
:101030000F91FF90EF90DF90CF90BF90AF909F9077
:101040008F907F906F905F904F903F902F9008957A
:101050000F931F93CF93DF9300D000D0CDB7DEB7AF
:101060008B0184EC90E00E94BB0B4AE050E0BE0193
:101070006F5F7F4FC8010E94080DCE0101960E944C
:101080009D0B08EB1BE025E030E040E050E065E41C
:1010900072E082EC90E00E94820C0F900F900F9013
:1010A0000F90DF91CF911F910F91089520916304CC
:1010B0003091640428173907B9F490912104809184
:1010C0002204981789F0E0912104F0E0ED5DFB4FD8
:1010D00080812091210430E02F5F3F4F2F73332711
:1010E0002093210490E008958FEF9FEF08951F93C0
:1010F000CF93DF93DC015C962D913C915D97211598
:10110000310539F481E090E013969C938E93129709
:101110003DC05196ED91FC91529750969C915097FD
:10112000892F80951FB75E964C915E9741FB77277C
:1011300070F941FD6095F8944081772311F0492BB7
:1011400001C048234083E9012197F1F748E050812D
:1011500060FF02C0592B01C058235083E901219739
:10116000F1F76695415099F7772321F09081892313
:10117000808303C08081982B90831FBF5C968D91E4
:101180009C915D970197F1F721E030E0C901DF9173
:10119000CF911F91089508952091630430916404C4
:1011A0002817390771F4909121048091220498172F
:1011B00041F0E0912104F0E0ED5DFB4F808190E093
:1011C00008958FEF9FEF0895209163043091640498
:1011D0002817390771F4809122042091210490E0AE
:1011E000805C9F4F821B910960E470E00E94500D6B
:1011F000089580E090E00895E0916304F091640424
:10120000E817F90769F4A389B4899C9185898095C9
:1012100089238C93109264041092630481E00895F2
:1012200080E00895CF93DF93EC018A8D9B8D892B0D
:10123000F1F080916304909164048C179D07B9F0DC
:10124000009711F00E94FC088E8D8E7F8E8F109279
:10125000220410922104D0936404C0936304EB89A8
:10126000FC8990818D89892B808381E001C080E099
:10127000DF91CF9108951F920F920FB60F92112414
:101280002F933F934F935F936F937F938F939F938E
:10129000AF93BF93EF93FF93E0916304F0916404E5
:1012A000309709F451C0968DA685B785858591FF45
:1012B00004C09C91892329F447C09C91892309F09B
:1012C00043C0A389B4899C918589809589238C9397
:1012D000868997890197F1F7608D718DA685B7850D
:1012E000558538E020E0CB010197F1F7822F90E09F
:1012F00095958795282F4C91452309F0206831500A
:1013000091F7868D81FD20958091220490E00196D1
:101310008F73992730912104381749F0A091220446
:10132000B0E0AD5DBB4F2C938093220403C0868D4B
:101330008160868F828D938D0197F1F7A389B4899F
:101340009C918589892B8C93FF91EF91BF91AF91EF
:101350009F918F917F916F915F914F913F912F91CD
:101360000F900FBE0F901F9018952DE632E0FC01F4
:10137000318320830C94FC081F93CF93DF93EC01FF
:10138000162F6E8D6695617081E06827812F0E940F
:10139000110361E0812F0E94D502612F70E0FB01F3
:1013A000E458FF4FE491E88BFB01E057FF4FE491D5
:1013B000F0E0EE0FFF1FE255FF4F859194919A8B5D
:1013C000898BDF91CF911F9108951F93CF93DF9366
:1013D000EC01162F60E0812F0E94D5028E8D81FDD9
:1013E00004C061E0812F0E9411031C87612F70E00F
:1013F000FB01E458FF4FE491ED87FB01E057FF4FFD
:10140000E491F0E0EE0FFF1FEC55FF4F85919491B2
:101410009F878E87DF91CF911F9108951F93CF9360
:10142000DF93EC01162F1B821A8288EE93E0A0E076
:10143000B0E08C839D83AE83BF838DE692E0998379
:1014400088831F8A1E8A198E188E1B8E1A8E1D8EF7
:101450001C8E8E8D8E7F20FB81F98E8F642FCE01A6
:101460000E94BC09612FCE01DF91CF911F910C9496
:10147000E509CF93DF93EC019A01AB011B8E1A8E25
:10148000198E188E1F8A1E8A60E079E08DE390E045
:101490000E94860DF9012430310518F0C901039727
:1014A00002C081E090E09D8F8C8F6C85663108F0E2
:1014B00069C0C901969587958431910510F04397CD
:1014C00002C081E090E09F8B8E8B369718F0C901A7
:1014D000059702C081E090E0998F888FC901880F3D
:1014E000991F280F391F36952795369527952D304A
:1014F000310518F02C50310902C021E030E03B8F5B
:101500002A8F90916800683050F021E06E3008F426
:1015100020E081E001C0880F2A95EAF701C084E04D
:10152000892B809368008C85883038F08E3040F0AD
:10153000863148F020E030E008C02DE630E005C0FC
:101540002BE630E002C02CE630E03C8B2B8B883061
:1015500030F491E001C0990F8A95EAF70EC0282F68
:1015600030E08E3018F42850310902C02E50310975
:1015700091E001C0990F2A95EAF79D8B8C8D9D8D86
:101580000197F1F7CE01DF91CF910C94120990935E
:101590006604809365040C94390A809165049091E7
:1015A0006604DC01ED91FC910084F185E02D099445
:1015B0000E94CD0A892B61F08091650490916604A8
:1015C000DC01ED91FC910284F385E02D0995F0CFCB
:1015D00008952F923F924F925F926F927F928F92D7
:1015E0009F92AF92BF92CF92DF92EF92FF920F93B2
:1015F0001F93CF93DF93CDB7DEB728970FB6F8943C
:10160000DEBF0FBECDBF9A8389838B017A0119019A
:101610000E9404024B015C019701A8EEB3E00E9416
:10162000A50D2B013C01C12CD12C760118861F82FF
:10163000910140E050E02B833C834D835E830E9408
:10164000CD0A892B01F18091650490916604DC013B
:10165000ED91FC910284F385E02D0995382E0E94CE
:1016600004026B017C018F8198850196AF81B8855A
:10167000E981FA81AE0FBF1F3C92801791076CF58C
:1016800098878F83DCCF2F813885201731072CF581
:101690000E940402DC01CB0188199909AA09BB093F
:1016A000481659066A067B06C0F00E940402DC0157
:1016B000CB018C199D09AE09BF092B813C814D815D
:1016C0005E81281739074A075B0708F0B8CFC114B5
:1016D000D104E104F10409F4B2CF28960FB6F894CE
:1016E000DEBF0FBECDBFDF91CF911F910F91FF9055
:1016F000EF90DF90CF90BF90AF909F908F907F90B2
:101700006F905F904F903F902F900895FC019F0144
:10171000281B390B2617370714F41192F8CF0895B8
:10172000A0916504B0916604ED91FC911197019030
:10173000F081E02D682FCD0109940F931F93CF9373
:10174000DF93EC018C01FE0101900020E9F7319755
:10175000EC1BFD0BC8018C1B9D0B8E179F0730F4F3
:10176000F80181918F010E94900BEDCFDF91CF9115
:101770001F910F910895CF93DF93FC012491EC0109
:101780002196222331F0FC0184910E94900BCE011E
:10179000F4CFDF91CF9108958AE10C94900B2F92B2
:1017A0003F924F925F926F927F928F929F92AF92F1
:1017B000BF92CF92DF92EF92FF920F931F93CF933E
:1017C000DF93CDB7DEB72A970FB6F894DEBF0FBE12
:1017D000CDBF8C017C836B837A011901FC010190E0
:1017E0000020E9F73197AF01481B590B5A83498311
:1017F0000E9404024B015C019701A8EEB3E00E9435
:10180000A50D2B013C01C12CD12C76011A8619861D
:10181000910140E050E02D833E834F8358870E9422
:10182000CD0A892B39F18091650490916604DC0121
:10183000ED91FC910284F385E02D0995382E0E94EC
:1018400004026B017C01E985FA85E00FF11F8081BC
:10185000831107C029853A852F5F3F4F3A87298733
:1018600002C01A86198649855A8589819A81481746
:10187000590741F10E940402DC01CB018819990942
:10188000AA09BB09481659066A067B0610F480E0CF
:1018900020C00E940402DC01CB018C199D09AE0915
:1018A000BF092D813E814F815885281739074A0786
:1018B0005B0708F0B4CFC114D104E104F10409F4CA
:1018C000AECFE5CF4B815C81452B11F40E94D80A45
:1018D00081E02A960FB6F894DEBF0FBECDBFDF9130
:1018E000CF911F910F91FF90EF90DF90CF90BF901D
:1018F000AF909F908F907F906F905F904F903F90B0
:101900002F900895CF92DF92EF92FF920F931F9343
:10191000CF93DF93EB017A0169010E94BB0B980121
:10192000A601B701CE01DF91CF911F910F91FF90DA
:10193000EF90DF90CF900C94CF0BFC018827992774
:10194000E89421912032E9F3293010F02E30C8F3C9
:101950002B3241F02D3239F4689404C00E941E0DE0
:10196000820F911D219120532A30C0F31EF49095CF
:1019700081959F4F0895F8940C94CE0DFB015191E1
:101980005523B1F0BF01DC01052E4D91442369F0D0
:1019900010D0D9F7CD010190002049F04D914111AF
:1019A00008D0C9F3FB014111EECF81E090E001972F
:1019B0000895402539F0403229F440294B57465EBE
:1019C00008F018940895FC018191861721F088236E
:1019D000D9F7992708953197CF010895FB015191C7
:1019E0005523A9F0BF01DC014D9145174111E1F7E5
:1019F00059F4CD010190002049F04D91401541115D
:101A0000C9F3FB014111EFCF81E090E00197089508
:101A10004532510520F4423010F00C94130DFB01B7
:101A20001082CB010895BB274A3031F4992322F468
:101A3000BDE2909581959F4F0C94270D7AE0979F7A
:101A4000902D879F802D910D11240895BB27FB01B8
:101A50005527AA27880F991FAA1FA41710F0A41BA7
:101A600083955051B9F7A05DAA3308F0A95DA19301
:101A7000009779F7B111B1931192CB010C94400DFD
:101A8000DC01FC01672F71917723E1F7329704C0E5
:101A90007C916D9370836291AE17BF07C8F3089570
:101AA00097FB072E16F4009407D077FD09D00E940B
:101AB000B40D07FC05D03EF4909581959F4F089595
:101AC000709561957F4F0895A1E21A2EAA1BBB1B4A
:101AD000FD010DC0AA1FBB1FEE1FFF1FA217B307FA
:101AE000E407F50720F0A21BB30BE40BF50B661F10
:101AF000771F881F991F1A9469F7609570958095D4
:101B000090959B01AC01BD01CF010895052E97FB77
:101B10001EF400940E949D0D57FD07D00E94640D95
:101B200007FC03D04EF40C949D0D509540953095D4
:101B300021953F4F4F4F5F4F089590958095709539
:101B400061957F4F8F4F9F4F0895A29FB001B39F24
:101B5000C001A39F700D811D1124911DB29F700DB6
:101B6000811D1124911D0895AA1BBB1B51E107C0C3
:101B7000AA1FBB1FA617B70710F0A61BB70B881F1D
:101B8000991F5A95A9F780959095BC01CD010895AC
:101B9000EE0FFF1F0590F491E02D099410E0CBEAC1
:101BA000D0E004C0FE010E94C80D2196CC3AD107B6
:061BB000C9F7F894FFCF15
:101BB6005241444941544F5200696E69742065721E
:101BC600726F720D0A00496E6974205375636365FE
:101BD60073732C20706C656173652073656E642069
:101BE600534D53206D65737361676520746F206D67
:101BF60065210046726F6D206E756D6265723A20C2
:101C0600004461746574696D653A200052656369C4
:101C160065766564204D6573736167653A20005289
:101C260061646961746F72204F4E202D204F4B21E5
:101C3600005354415445005261646961746F7220C7
:101C46004F4E005261646961746F72204F464600C0
:101C5600434845434B006E616E00696E66006F76C1
:101C6600660000000000F304FD039304D10465043C
:101C76007F0471042B4350494E3A20524541445942
:101C8600002B435245473A20302C31003E004F4B43
:101C9600002B434D474C3A002B434D47523A002BFD
:101CA600434E554D3A002B435041533A002B434C7B
:101CB60043433A002B43434C4B3A002B4353513A90
:101CC600002B435553443A200053485554204F4B5C
:101CD6000D0A00434F4E4E45435400434F4E4E456A
:101CE6004354454400434C4F5345204F4B0D0A0087
:101CF60053454E44204F4B0D0A0041542B43495047
:101D0600534855540D0A004552524F52002B434931
:101D16005047534D4C4F433A00000000007708FDF2
:0C1D2600036B03CB08E4085608CC08004F
:00000001FF
